:100000000C942C050C9473050C9473050C947305D7
:100010000C9473050C9473050C9473050C94730580
:100020000C9473050C9473050C94051F0C94D81F45
:100030000C9479160C9473050C9473050C94730549
:100040000C9473050C9473050C9473050C94730550
:100050000C9473050C94E1160C9473050C947305C1
:100060000C9473050C9473050C9473050C94730530
:100070000C9473050C9473050C9473050C94730520
:100080000C9473050C9473050C9473050C94730510
:100090000C9473050C9473050C9473050C94730500
:1000A0000C9473050C9473050C94730525003800AB
:1000B000140008001700180012002A00240026006F
:1000C00029001A0015001C000C0013002200250254
:1000D000040007000A000D000F0034002100230077
:1000E0002B00160009000B000E0033001F002D002E
:1000F0001D00060005001000370028001E0020002B
:10010000E1001B00190011003600380037002E02F4
:10011000E30002510000E50051004F0027004C00B1
:10012000E000E20001512C005000520001000100EB
:1001300001000100010001000100010001000100B7
:100140000070010001000100010001000100010038
:100150000100010001000100010001000100010097
:100160000100010001000100010001000100010087
:100170000100010001000100010001000100010077
:100180000100010001000100010001000100010067
:100190000100010000000100010001000100010058
:1001A0000100010001000100010001000100010047
:1001B0000100010001000100010001000100010037
:1001C0000100010001000100010001000100010027
:1001D0000100010001000100010001000100010017
:1001E0000100010001000100010001000100010007
:1001F00001000100010001000100010001000100F7
:1002000001000100010001000100010001000100E6
:1002100001000100000001000100010001000100D7
:1002200001000100010001000100010001000100C6
:1002300001000100010001000100010001000100B6
:1002400001000100010001000100010001000100A6
:100250000100010001000100010001000100010096
:100260000100010001000100010001000100010086
:100270000100010001000100010001000100010076
:100280000100010001000100010001000100010066
:100290000100010000000100010001000100010057
:1002A0000100010001000100010001000100010046
:1002B0000100010001000100010001000100010036
:1002C0000100010001000100010001000100010026
:1002D0000100010001000100010001000100010016
:1002E0000100010001000100010001000100010006
:1002F00001000100010001000100010001000100F6
:1003000001000100010001000100010001000100E5
:1003100001000100000001000100010001000100D6
:1003200001000100010001000100010001000100C5
:1003300001000100010001000100010001000100B5
:1003400001000100010001000100010001000100A5
:100350000100010001000100010001000100010095
:100360000100010001000100010001000100010085
:100370000100010001000100010001000100010075
:100380000100010001000100010001000100010065
:100390000100010000000100010001000100010056
:1003A0000100010001000100010001000100010045
:1003B0000100010001000100010001000100010035
:1003C0000100010001000100010001000100010025
:1003D0000100010001000100010001000100010015
:1003E0000100010001000100010001000100010005
:1003F00001000100010001000100010001000100F5
:1004000001000100010001000100010001000100E4
:1004100001000100000001000100010001000100D5
:1004200001000100010001000100010001000100C4
:1004300001000100010001000100010001000100B4
:1004400001000100010001000100010001000100A4
:100450000100010001000100010001000100010094
:100460000100010001000100010001000100010084
:100470000100010001000100010001000100010074
:100480000100010001000100010001000100010064
:100490000100010000000100010001000100010055
:1004A0000100010001000100010001000100010044
:1004B0000100010001000100010001000100010034
:1004C0000100010001000100010001000100010024
:1004D0000100010001000100010001000100010014
:1004E0000100010001000100010001000100010004
:1004F00001000100010001000100010001000100F4
:1005000001000100010001000100010001000100E3
:1005100001000100000001000100010001000100D4
:1005200001000100010001000100010001000100C3
:1005300001000100010001000100010001000100B3
:1005400001000100010001000100010001000100A3
:100550000100010001000100010001000100010093
:100560000100010001000100010001000100010083
:100570000100010001000100010001000100010073
:100580000100010001000100010001000100010063
:100590000100010000000100010001000100010054
:1005A0000100010001000100010001000100010043
:1005B0000100010001000100010001000100010033
:1005C0000100010001000100010001000100010023
:1005D0000100010001000100010001000100010013
:1005E0000100010001000100010001000100010003
:1005F00001000100010001000100010001000100F3
:1006000001000100010001000100010001000100E2
:1006100001000100000001000100010001000100D3
:1006200001000100010001000100010001000100C2
:1006300001000100010001000100010001000100B2
:1006400001000100010001000100010001000100A2
:100650000100010001000100010001000100010092
:100660000100010001000100010001000100010082
:100670000100010001000100010001000100010072
:100680000100010001000100010001000100010062
:100690000100010000000100010001000100010053
:1006A0000100010001000100010001000100010042
:1006B0000100010001000100010001000100010032
:1006C0000100010001000100010001000100010022
:1006D0000100010001000100010001000100010012
:1006E0000100010001000100010001000100010002
:1006F00001000100010001000100010001000100F2
:1007000001000100010001000100010001000100E1
:1007100001000100000001000100010001000100D2
:1007200001000100010001000100010001000100C1
:1007300001000100010001000100010001000100B1
:1007400001000100010001000100010001000100A1
:100750000100010001000100010001000100010091
:100760000100010001000100010001000100010081
:100770000100010001000100010001000100010071
:100780000100010001000100010001000100010061
:100790000100010000000100010001000100010052
:1007A0000100010001000100010001000100010041
:1007B0000100010001000100010001000100010031
:1007C0000100010001000100010001000100010021
:1007D0000100010001000100010001000100010011
:1007E0000100010001000100010001000100010001
:1007F00001000100010001000100010001000100F1
:1008000001000100010001000100010001000100E0
:1008100001000100000001000100010001000100D1
:1008200001000100010001000100010001000100C0
:1008300001000100010001000100010001000100B0
:1008400001000100010001000100010001000100A0
:100850000100010001000100010001000100010090
:100860000100010001000100010001000100010080
:100870000100010001000100010001000100010070
:100880000100010001000100010001000100010060
:100890000100010000000100010001000100010051
:1008A00001000100010001000100010012036B00C2
:1008B0006500790062006F00610072006400000052
:1008C000160371006D006B006200750069006C001A
:1008D00064006500720000000403090409026D0051
:1008E000040100A0FA09040000010301010009212C
:1008F000110100012240000705810308000A0904D4
:1009000001000103010200092111010001224D0033
:100910000705820308000A09040200010300000021
:100920000921110100012236000705830308000A8E
:100930000904030001030000000921110100012244
:100940003900070584032000011201100100000096
:1009500008EDFE606001000102000105010906A129
:1009600001050719E029E7150025019508750181A2
:100970000205081901290595057501910295017572
:100980000391010507190029F71500250195F87550
:10099000018102C005010980A1018502160100261E
:1009A00003001A81002A8300751095018100C0059B
:1009B0000C0901A1018503160100269C021A010001
:1009C0002A9C02751095018100C005010902A10150
:1009D0000901A10005091901290515002501950541
:1009E0007501810295017503810105010930093105
:1009F0001581257F95027508810609381581257FA7
:100A0000950175088106050C0A38021581257F9528
:100A10000175088106C0C005010906A10105071975
:100A2000E029E715002501950875018102950175FA
:100A3000088101050819012905950575019102959F
:100A400001750391010507190029FF150026FF0014
:100A5000950675088100C00011241FBECFEFDAE0B3
:100A6000DEBFCDBF04B603FE27C080913A0290914D
:100A70003B02A0913C02B0913D028730904BA740D1
:100A8000B04BD1F410923A0210923B0210923C0209
:100A900010923D0214BE84B7877F84BF0FB6F894CE
:100AA000A89580916000886180936000109260003A
:100AB0000FBEE0E0F8E3099511E0A0E0B1E0E8E363
:100AC000F6E402C005900D92A833B107D9F722E0F1
:100AD000A8E3B1E001C01D92AA33B207E1F70E947A
:100AE000541C0C941A230C94000090E080E00895AC
:100AF0000895089581E00895089581E008950C9483
:100B00007A050E94F30E2FEF84E39CE02150804091
:100B10009040E1F700C000000C940617FF920F937D
:100B20001F93CF93DF938C01FC01C081D181809111
:100B30006C0181113FC082818823B9F1CE010E94EE
:100B40005A14F82E682FCE010E940014BE018F2D7A
:100B50000E94D506EC01B8010E947F05882309F4A4
:100B60004AC0B801CE010E94E608882309F443C0B8
:100B7000C531F0E7DF0718F5C23080E7D80708F085
:100B80004BC0C115E0E7DE0789F1C130D047D1F194
:100B900081E080933A0180933B01C801DF91CF91BE
:100BA0001F910F91FF900C947D05CE010E942F1490
:100BB000F82ECCCFCE010E945A14BE01C9CFCC333F
:100BC00080E7D80709F4ACC0CD33D04709F7F80166
:100BD0008281882309F4CBC010923B010E94AB169E
:100BE000909339018093380180E2A7C0F801828197
:100BF00081110E94810580E0DF91CF911F910F91BB
:100C0000FF900895F80182818823A9F38091FA0169
:100C100081608093FA01EFCFF8018281882309F483
:100C2000BCCF0E940B16811102C00E94F1150E94D8
:100C3000281690E090932C0280932B02FE01E35043
:100C4000F04780912B028160E231F105C8F4E55D47
:100C5000F94F0C94CA223D0649064D065106550629
:100C600059065D066106650669066D06710675061C
:100C700079067D0681068506890680912B028260B1
:100C800080932B0280912B020E942C160E94F30E5F
:100C9000B2CF80912B028460F3CF80912B028860C9
:100CA000EFCF80912B028061EBCF80912B0280628D
:100CB000E7CF80912B028064E3CF80912B02806884
:100CC000DFCF80912B028460EACF80912B028E7F50
:100CD000D7CF80912B028D7FD3CF80912B028B7F3A
:100CE000CFCF80912B02877FCBCF80912B028F7E3D
:100CF000C7CF80912B028F7DC3CF80912B028F7B3A
:100D0000BFCF80912B028F77BBCF80912B028B7F3F
:100D1000EACF90912B02892F97FB87F98058B0CFAB
:100D2000F8018281882361F010923A010E94AB168B
:100D3000909339018093380182E00E947D0C5BCF53
:100D400080913A0181110FC0809138019091390151
:100D50000E94B716883C910530F486E20E94520B3F
:100D600086E20E942E0C82E00E94840C44CF809187
:100D70003B0181110FC080913801909139010E948F
:100D8000B716883C910530F487E20E94520B87E247
:100D90000E942E0C80E2E8CF0C9435090C943709A0
:100DA0000C947C050C94D006089528E0829FC00125
:100DB0001124FC01E70FF11D83E0EE0FFF1F8A9560
:100DC000E1F7E60FF11DEE0FFF1FE455FF4F859190
:100DD00094910895FC01EE0FFF1FE455F74F8591A4
:100DE000949108950E94D5060E946508811520E41B
:100DF000920708F08DC0811540E3940708F0E8C021
:100E0000803E910508F071C0803C910508F0CCC08F
:100E1000883A910580F4853A910508F0CAC081307E
:100E2000910509F46EC020F08430910508F069C086
:100E300090E080E008958D3B9105D0F7883A9105C8
:100E400009F404C1893A910509F403C18A3A91056C
:100E500009F402C18B3A910509F401C18C3A91055C
:100E600009F400C18B3B910509F4FFC08C3B91054F
:100E700009F4FEC08D3A910509F4FDC0803B91054F
:100E800009F4FCC08E3A910509F4FBC08F3A910534
:100E900009F4FAC0813B910509F4F9C0823B910540
:100EA00009F4F8C0833B910509F4F7C0843B910530
:100EB00009F4F6C0853B910509F4F5C0863B910520
:100EC00009F4F4C0873B910509F4F3C0883B910510
:100ED00009F4F2C0893B910509F4F1C08A3B910500
:100EE00009F4F0C080E094E408958F3F910509F083
:100EF00048F4803F910508F067C0883E910508F0EE
:100F000097CF0895811520E2920708F05FC00895F9
:100F1000811543E5940760F5811522E5920708F0F5
:100F200062C0811541E5940708F058C0811520E59D
:100F3000920708F450C09C0154E0369527955A95C5
:100F4000E1F7922F9370482F437021E030E002C008
:100F5000220F331F4A95E2F73C68392B8695869518
:100F6000837040E2849FC0011124822B932B08954B
:100F7000811545E5940750F4811524E5920708F49E
:100F800046C0982F8827846F906A0895811546E59A
:100F9000940708F450C09C0130569F7021153041D1
:100FA00008F046CF90620895805C91090E94EA069D
:100FB0000895853A910509F443C0863A910509F0F0
:100FC00042C082E890E40895906508959F70EECF46
:100FD0009927906C08959F70906A0895982F88279C
:100FE000816F906A0895AC014370552721E030E08D
:100FF00002C0220F331F4A95E2F78695869540E29C
:10100000849FC0011124822B932B9C680895AC010E
:101010004370552721E030E002C0220F331F4A956C
:10102000E2F78695869540E2849FC0011124822BC9
:10103000932B9A680895982F882788279F71B2CF9D
:1010400081E890E4089583E890E4089582EE94E4C2
:10105000089589EE94E408958AEE94E4089585EB6A
:1010600094E4089586EB94E4089583EB94E4089562
:1010700084EB94E4089587EB94E408958CEC94E475
:1010800008958DEC94E4089583E895E408958AE842
:1010900095E4089582E995E4089584E995E4089536
:1010A00081E296E4089583E296E4089584E296E46A
:1010B000089585E296E4089586E296E4089587E22D
:1010C00096E408958AE296E41CCF8238910549F1AE
:1010D000B0F48133910509F45CC048F4893291057C
:1010E00009F452C08A32910509F458C00895853335
:1010F000910509F444C08933910599F00895833E20
:10110000910531F138F4803E910591F0823E9105D0
:10111000B1F00895863E910511F1873E910541F1A8
:10112000089520912B022370C9F080EE90E008957D
:1011300020912B0220FF12C089E390E008952091B6
:101140002B0222FF0BC024FF2EC090E080E0089508
:1011500020912B0222FD2AC024FDF7CF0895209173
:101160002B0223FFFBCF24FDF0CF87EE90E0089504
:1011700020912B0223FFF0CF86EE90E0089520917E
:101180002B0225FD16C0089520912B0225FD14C0C9
:10119000089520912B0226FD12C0089520912B0264
:1011A00026FD10C0089583EE90E0089582EE90E051
:1011B000089589E290E0089585E390E008958AE239
:1011C00090E0089581E390E0C9CF08950F931F93B5
:1011D000CF938C01FB018281811106C0C1E08C2F6D
:1011E000CF911F910F910895C0914901C11125C060
:1011F0000531104799F70E94E50881E08093490185
:101200000E94AB16909348018093470110923C01D5
:1012100010923E0110923D011092400110923F0148
:101220001092420110924101109244011092430128
:101230001092460110924501D2CF809147019091C2
:1012400048010E94B716883C910540F680913C0108
:10125000E82FF0E0EE0FFF1FE35CFE4F11830083E9
:101260008F5F80933C01C0E0BACF0C9478050C945A
:10127000790585B7806885BF85B7806885BFABE194
:10128000B1E061E070E08D91E82FE295EF70F0E061
:1012900041A18F709B0101C0220F8A95EAF7922F1E
:1012A0009095942391A382A1822B82A381E0A33203
:1012B000B80749F7A3E1B1E061E070E08D91E82F54
:1012C000E295EF70F0E041A18F709B0101C0220F09
:1012D0008A95EAF7922F9095942391A382A1822B6D
:1012E00082A381E0AB31B80749F7E2E5F1E0AAE477
:1012F000B1E08AE591E011921D928E179F07D9F710
:101300000C94CC066F927F928F929F92AF92BF9275
:10131000CF92DF92EF92FF920F931F93CF93DF93C1
:101320000AE411E09BE1E92E91E0F92EE801CC24DA
:10133000C394D12CBB24B394A8801882D7018D917B
:101340007D01E82FE295EF70F0E091A18F70A6018A
:1013500001C0440F8A95EAF7892F842B81A382A1CB
:10136000842E8094882182A3B0EABA95F1F783E1B4
:10137000682E81E0782E90E080E0D3013D913D0120
:10138000632F62956F7070E0DB0190962C919880CE
:101390003F70B60101C0660F3A95EAF7622320E07C
:1013A00031F42C2D082E01C0220F0A94EAF72929C6
:1013B000288301968830910501F781A1882181A3B6
:1013C00082A1482B42A38881A81641F0B0925A010D
:1013D0000E94AB1690935C0180935B012196B3E26F
:1013E000EB16B1E0FB0609F0A7CF80915A018823E4
:1013F000A9F080915B0190915C010E94B71606975D
:1014000068F0E2E5F1E082E591E0D8012D918D01EF
:1014100021938A179B07C9F710925A010E94CE06A2
:1014200081E0DF91CF911F910F91FF90EF90DF90BE
:10143000CF90BF90AF909F908F907F906F900895C6
:10144000E82FF0E0EE5AFE4F8081089508959093C2
:101450006201809361010895E0916101F091620160
:10146000309721F00190F081E02D099480E00895FB
:10147000E0916101F0916201309721F00280F381E7
:10148000E02D09940895E0916101F0916201309797
:1014900021F00480F581E02D0994089520915F01E9
:1014A000309160012817390771F0909360018093A3
:1014B0005F01E0916101F0916201309721F00680B7
:1014C000F781E02D0994089520915D0130915E012E
:1014D0002817390771F090935E0180935D01E091C8
:1014E0006101F0916201309721F00084F185E02DD7
:1014F0000994089508950C947A0A0E94A2160E94F5
:1015000039090C946B17BF92CF92DF92EF92FF9242
:101510000F931F93CF93DF93CDB7DEB72A970FB604
:10152000F894DEBF0FBECDBF0E94820984E6C82EAC
:1015300081E0D82E10E000E0B02E802F0E94200A1B
:10154000E82EF601F1906F01F81609F45AC0809167
:10155000FA0181FD0E94260A90E080E0FE242F2DF2
:1015600030E0482FB901082E02C0759567950A949E
:10157000E2F760FF41C08E83BF8281E090E06C01A2
:1015800002C0CC0CDD1C4A95E2F72E2D30E02C2158
:101590003D21232B09F480E088870E94AB168160EF
:1015A000782F9A8789874E815F8168858A850E9416
:1015B000280BF801EC59FE4F80818C2580830E9416
:1015C000EE190E942C0A90916301891789F10E94FB
:1015D0002C0A809363012A960FB6F894DEBF0FBEE3
:1015E000CDBFDF91CF911F910F91FF90EF90DF90D2
:1015F000CF90BF900C94D20601968830910509F0E7
:10160000B0CF0F5F1F4F0830110509F095CF8FEF56
:1016100089838A831B820E94AB168160782F9D8309
:101620008C8349815A816B818D810E94280BC7CFA1
:101630002A960FB6F894DEBF0FBECDBFDF91CF91D3
:101640001F910F91FF90EF90DF90CF90BF90089582
:10165000CF93DF93CDB7DEB72B970FB6F894DEBFED
:101660000FBECDBF4F83588769877A878B871E82CD
:101670001D8285E0FE013796DE01119601900D92E4
:101680008A95E1F749815A816B817C818D819E81A8
:101690002B960FB6F894DEBF0FBECDBFDF91CF9172
:1016A0000C94A511882309F4D8C0823871F40E94E3
:1016B0002C0A81FDD2C089E30E94FA140E94C2154F
:1016C00089E30E9437150C94C215833859F40E949F
:1016D0002C0A80FDC2C083E50E94FA140E94C21544
:1016E00083E5EFCF843859F40E942C0A82FDB5C0FF
:1016F00087E40E94FA140E94C21587E4E2CF9CEFAF
:10170000980F913A18F40E94FA14DDCF90E2980FE6
:10171000983050F4877091E001C0990F8A95EAF7EC
:10172000892F0E947915CFCF9BE5980F933070F4E5
:10173000853A31F0863A39F083E890E00C944E0A0D
:1017400081E890E0FBCF82E890E0F8CF98E5980F31
:10175000953108F082C0883A09F440C0893A09F40A
:1017600040C08A3A09F440C08B3A09F440C08C3A30
:1017700009F440C08B3B09F440C08C3B09F440C0E5
:101780008D3A09F440C0803B09F440C08E3A09F418
:1017900040C08F3A09F440C0813B09F440C0823B0D
:1017A00009F440C0833B09F440C0843B09F440C0C5
:1017B000853B09F440C0863B09F440C0873B09F4EF
:1017C00040C0883B09F440C0893B09F440C08A3BD3
:1017D00009F440C090E080E00C94640A82EE90E04E
:1017E000FBCF89EE90E0F8CF8AEE90E0F5CF85EB65
:1017F00090E0F2CF86EB90E0EFCF83EB90E0ECCF80
:1018000084EB90E0E9CF87EB90E0E6CF8CEC90E0C2
:10181000E3CF8DEC90E0E0CF83E891E0DDCF8AE884
:1018200091E0DACF82E991E0D7CF84E991E0D4CF9B
:1018300081E292E0D1CF83E292E0CECF84E292E0E7
:10184000CBCF85E292E0C8CF86E292E0C5CF87E2B7
:1018500092E0C2CF8AE292E0BFCF0895882309F4D4
:101860004BC0823871F40E942C0A81FF45C089E385
:101870000E94FA140E94C21589E30E9437150C9445
:10188000C215833859F40E942C0A80FF35C083E5C5
:101890000E94FA140E94C21583E5EFCF843859F4F0
:1018A0000E942C0A82FF28C087E40E94FA140E943A
:1018B000C21587E4E2CF9CEF980F913AF0F290E2E4
:1018C000980F983050F4877091E001C0990F8A9575
:1018D000EAF7892F0E947F15D2CF9BE5980F9330AE
:1018E00020F490E080E00C944E0A885A853120F470
:1018F00090E080E00C94640A0895882321F00E940F
:1019000079150C94C2150895882321F00E947F1543
:101910000C94C21508958F929F92AF92BF92DF925E
:10192000EF92FF920F931F93CF93DF937C01D62FFB
:10193000C72FFC01058102950F70128111110E94C1
:1019400098150E94F314D82E882371F0112321F1E9
:1019500080E28D0F883000F182E00E94DD140E9449
:10196000F31491E0D82ED926EC2FE295EF70F0E039
:10197000E454F34F0C94CA22CE0CCE0C1E0D1E0D57
:10198000600D7C0DFB0CFB0C870DFB0C1F0E1F0E5E
:10199000920EFB0CFB0C9B0ED12CE6CF0C2F0F7084
:1019A000C07F11F00295007F1123A9F0002359F0A8
:1019B00080E28D0F883010F0D11109C0802F0E9475
:1019C00079150E94C2158D2F0E94520B14C0802FD2
:1019D0000E948A15F6CF8D2F0E942E0C002359F0FD
:1019E00080E28D0F883010F0D11124C0802F0E942A
:1019F0007F150E94C215DD2009F4A4C10E94D014F5
:101A000080FDA0C1F70112820E94CA140E944413F3
:101A1000C7010E94AE0E0E94CA14DF91CF911F91A0
:101A20000F91FF90EF90DF90BF90AF909F908F90BD
:101A30000C946513802F0E949015DBCFFC2FFF7054
:101A4000BF2EC07FC03219F0B29480EFB822DD23E0
:101A500069F0D13029F1112369F1002359F0F70120
:101A6000858180FFB0CF8F70858304C0112361F022
:101A7000011104C08B2D0E947D0CBDCF8B2D013038
:101A8000D1F70E94AC15B7CF011106C00E94AF1567
:101A90008B2D0E94840CAFCF013009F4ACCFF6CF70
:101AA000112321F0063008F0A6CFE4CF053008F06E
:101AB000A2CFEECF002361F38D2F0E942E0C9BCF7F
:101AC0008C2F86958695837069F0813009F093CFCD
:101AD0008D2F9C2F9370111102C090E080E00E9426
:101AE000640A89CF8D2F9C2F9370111102C090E052
:101AF00080E00E944E0A7FCF8D2F112329F00E9493
:101B0000F7180E94E31977CF0E945F19FACF8C2F44
:101B1000837009F047C011116ECF2D2F22952695A5
:101B20002770220F220F6D2F6F70862E912CB12CF3
:101B3000A12C022E04C0880C991CAA1CBB1C0A9460
:101B4000D2F760E070E0CB01D4FF0FC06FE070E02F
:101B500080E090E004C0660F771F881F991F2A95C8
:101B6000D2F76095709580959095C695C695C3708F
:101B7000C23051F080F4682979298A299B29C13023
:101B800071F00E94ED1237CF682979298A299B29A3
:101B90000E94091330CF0E94ED12C501B4010E94CA
:101BA000D11229CF8695112311F08C2F81708823B3
:101BB00009F421CF2D2F229526952770220F220F71
:101BC0006D2F6F70862E912CB12CA12C022E04C08B
:101BD000880C991CAA1CBB1C0A94D2F760E070E028
:101BE000CB01D4FF0FC06FE070E080E090E004C054
:101BF000660F771F881F991F2A95D2F760957095F9
:101C000080959095C695C695C370C23051F080F40A
:101C1000682979298A299B29C13071F00E94C7134C
:101C2000EACE682979298A299B290E94E313E3CE09
:101C30000E94C713C501B4010E94AB13DCCEE0E2E1
:101C4000ED0FE53108F062C0F0E0E75DF14F0C9474
:101C5000CA223E0E3E0E3E0E3E0E3E0E3E0E3E0E84
:101C60003E0E3E0E3E0E3E0E3E0E3E0E3E0E3E0E14
:101C70003E0E4B0E590E600E670E710EDF708C2FEC
:101C80008F71112321F00E9444138D2FF4CE0E94F6
:101C900065138D2FFECE112341F0053008F0ABCE39
:101CA0008C2F8F710E948A13A6CE063008F0A3CE27
:101CB000F7CF8C2F8F71112339F00E9444139BCEE4
:101CC0008C2F8F711123C9F30E94651394CE1123B9
:101CD00029F08C2F8F710E942F138DCE0E94251317
:101CE0008ACE112349F0CF718C2F0E94441363E0F8
:101CF0008C2F0E94D4147FCE81E00E94DD1402302C
:101D000008F479CE82E00E94DD1475CE112329F00B
:101D1000011159CE8C2F8F71D0CF0111CDCE8C2FC8
:101D20008F71D2CF4C2F4F706D2FC7010E94750558
:101D30000E944E1260CE4C2F4F706D2FC7010E9433
:101D4000D40659CEDF91CF911F910F91FF90EF9064
:101D5000DF90BF90AF909F908F9008950F931F9347
:101D6000CF93DF93EC01988189812B813C81232BD8
:101D700039F08F3F19F481E09F3F19F080E001C0F6
:101D800081E080FD17C0CE010E948E05882391F06E
:101D9000688179818A810E94A6148C010E94FF13B8
:101DA0000E94C612B801CE01DF91CF911F910F9111
:101DB0000C948B0CDF91CF911F910F9108950E948D
:101DC00098150E94A9150E946B150E94C2150E94C9
:101DD000901A0E94E31990E080E00E944E0A90E081
:101DE00080E00C94640A0E9487150C94DF0E0E9418
:101DF0009C14E92FE295EF70E250EE30E0F4F0E051
:101E0000EC5FF04F0C94CA22120F120F1B0F1B0F26
:101E10001D0F1B0F1B0F1B0F120F120F220F1B0F7B
:101E20001B0F220F803F19F020F4803E20F481E048
:101E30000895843FE1F380E00895803EC0F3813F40
:101E4000D1F7F5CF93FB882780F90895CF93DF93DF
:101E500000D000D01F92CDB7DEB70F900F900F903B
:101E60000F900F90DF91CF910895CF93DF9300D023
:101E700000D000D0CDB7DEB726960FB6F894DEBFFF
:101E80000FBECDBFDF91CF9108951F93CF93DF9306
:101E9000C0916D0116E080916E018C1304C0DF913A
:101EA000CF911F910895D0E01C9FF0011D9FF00D70
:101EB0001124E159FE4F40815181628173818481F7
:101EC00095810E94350F2196C770E5CF40919F0103
:101ED0005091A0016091A1017091A2018091A30194
:101EE0009091A4010C94350F1F93CF93DF938091B1
:101EF000A401807FD1F48091A1018823B1F0809169
:101F00006D01D0916E01B0919F01C091A0014091EF
:101F1000A2015091A301A1E0BF3F09F0A0E0BA01E6
:101F20006095709516E0D81304C0DF91CF911F9192
:101F3000089521E04115510521F02A2FCF3F09F0E6
:101F400020E090E020FD38C0189FF001199FF00DAF
:101F50001124E159FE4F21812C132EC020812B1317
:101F60002BC02281211128C02381348124173507F9
:101F700000F1241B350B283C3105F0F42091A4011D
:101F80002F7020612093A40126E0289FF001299F53
:101F9000F00D1124EC58FE4F80818F70806180839A
:101FA0008FE991E00E94AE0EDF91CF911F910C94CA
:101FB000450F260F371FDFCF01968770B4CFAF9242
:101FC000BF92CF92DF92EF92FF920F931F93CF9326
:101FD000DF93CDB7DEB761970FB6F894DEBF0FBEC3
:101FE000CDBF8C0185E0F801DE011D9601900D92B8
:101FF0008A95E1F7D8014C9111965C911197129650
:10200000EC9030919F016091A0018091A20190918C
:10201000A30121E0009731F06F3F19F421E03F3F29
:1020200009F020E0B22FB170BB2E20FD80C1F80175
:10203000C380D480A090A101AA2009F427C1C816AA
:10204000D906D0F1D601A81BB90BCD01FF24F3941A
:10205000883C910508F0F12C8091A401982F907F85
:10206000FF2009F4CAC0911187C0FE2C651329C056
:10207000341327C0E11025C08F7080618093A401C4
:102080000E94660F8FE991E00E94AE0E8091A4013C
:10209000F80185838F2D61960FB6F894DEBF0FBED1
:1020A000CDBFDF91CF911F910F91FF90EF90DF9007
:1020B000CF90BF90AF900895809590958C0D9D1D09
:1020C000C5CF81E0CD2831F05F3F19F481E04F3F6B
:1020D00009F080E080FD24C081E08E25F82FF170AA
:1020E000DF2E80FF3FC080916D0120916E0136E0B0
:1020F000821318C04D875E878D859E850E949C1433
:10210000292F22952F70223008F1243030F59F704E
:1021100009F1D80115969C91907FE1F4FB2CBACF80
:1021200080E0DCCF90E0389FF001399FF00D112462
:10213000E159FE4F6181561306C06081461303C00A
:1021400062816E110FC001968770D2CF9F7011F01F
:10215000882321F3805E883008F3C8010E94AE0E08
:10216000BD2CDCCFEE2009F495CF8091A4018160D5
:102170008093A401F12C8ECF651312C0341310C0CC
:10218000E1100EC0F8018583C8010E94AE0E86E002
:10219000F801AFE9B1E001900D928A95E1F741C0F5
:1021A0004D875E878D859E850E94F70E882309F4F2
:1021B000C8C0EE2009F4C5C08091A401803270F03F
:1021C00020919F013091A00138872F831986DB86EB
:1021D000CA868C87CE0107960E94AE0E86E0F80173
:1021E000AFE9B1E001900D928A95E1F70E94740F7A
:1021F0000E94660FFF24F3944DCF911115C07C2DE2
:10220000D98AC88A6E2D89890E94260F8FE991E0AC
:102210000E94AE0E86E0EFE9F1E0DF011D928A95A3
:10222000E9F70E94660F36CF651312C0341310C051
:10223000E1100EC0F8018583C8010E94AE0EEFE9DF
:10224000F1E086E0DF011D928A95E9F7FA2C22CFB2
:102250004D875E878D859E850E94F70E882309F441
:1022600070C0EE2009F46DC08091A401803208F4A2
:10227000B5CF20919F013091A0013A8329831B8221
:10228000DD82CC828E83CE010196A6CFC816D906F8
:1022900038F1F601E81BF90BCF01F12C883C9105D0
:1022A00008F03DC0FE2CEE2009F44BC0651326C09B
:1022B000341324C08091A40180FD17C0982F907F13
:1022C000A1F0D80115968C931597903F09F45CCF37
:1022D000982F907F905F8F70892B15968C9354CF99
:1022E000809590958C0D9D1DD8CF86E0F801AFE9C3
:1022F000B1E001900D928A95E1F7CCCE4D875E87D3
:102300008D859E850E94F70E811168CF8091A40172
:1023100081608093A401C8010E94AE0EBBCE7C2DCB
:10232000D98AC88A6E2D89890E94260F73CFEE2024
:1023300041F04D875E878D859E850E94F70E811145
:102340004DCFC8010E94AE0E55CF1F93CF93DF93A0
:10235000CDB7DEB72C970FB6F894DEBF0FBECDBF5A
:102360004F83588769877A878B879C87CE0107962A
:102370000E94DF0F882309F442C09F8188852A8547
:102380003B85232B39F08F3F19F481E09F3F19F0F3
:1023900080E001C081E080FD08C04F8158856985DB
:1023A0007A858B859C850E94350F16E080916D01A2
:1023B00090916E01891709F467C0819FC0011124B3
:1023C00081599E4F0E94DF0F882309F45DC0E09180
:1023D0006D011E9FF0011124E159FE4F4081518192
:1023E00062817381848195810E94350F80916D0196
:1023F00090E001968770992780936D01D7CF86E092
:10240000FE013796DE01119601900D928A95E1F753
:102410009F8188852A853B85232B39F08F3F19F4CE
:1024200081E09F3F19F080E001C081E080FDBDCFD9
:1024300020916E0130E0C901019687709927409183
:102440006D014817190699F096E0929FD001939F6D
:10245000B00D1124A159BE4FFE01319601900D928D
:102460009A95E1F780936E010E94450F9ECF0E94DE
:10247000F30E10926E0110926D0186E0EFE9F1E02B
:10248000DF011D928A95E9F72C960FB6F894DEBF0E
:102490000FBECDBFDF91CF911F910895EF92FF92B4
:1024A0000F931F93CF93DF938C01892B81F0F12C35
:1024B000EE24E394E8012196F8018491843770F4C6
:1024C000843008F05FC08130B1F08230A1F1DF913B
:1024D000CF911F910F91FF90EF900895853709F4E8
:1024E0004CC008F43DC09CE7980F903780F78F7779
:1024F0000E942E0C49C00E5F1F4FFE01849190E296
:10250000980F983060F48770FE2D01C0FF0F8A95F8
:10251000EAF78F2F0E949B150E94C21502C00E94ED
:10252000520B8F2D815030F2EFE9FFE03197F1F738
:1025300000C00000F7CF0E5F1F4FFE01849190E2B4
:10254000980F983050F48770FE2D01C0FF0F8A95C8
:10255000EAF78F2F0E94A115DFCF0E942E0CE1CF4A
:102560000E5F1F4FFE01C491C150D8F28FE99FE06A
:102570000197F1F700C00000F7CF0E5F1F4FFE017B
:10258000F490CFCF0E94520B8E01CBCF0895609371
:10259000D1017093D2018093D3019093D4010C9414
:1025A000DF0E0F931F930091D1011091D201209162
:1025B000D3013091D401DC01CB01802B912BA22BD4
:1025C000B32B8093D1019093D201A093D301B09308
:1025D000D4011F910F910C94DF0E0F931F93009164
:1025E000D1011091D2012091D3013091D401DC01AD
:1025F000CB0180239123A223B3238093D101909315
:10260000D201A093D301B093D4011F910F910C94E8
:10261000DF0E0F931F930091D1011091D2012091F1
:10262000D3013091D401DC01CB0180279127A2276F
:10263000B3278093D1019093D201A093D301B0939B
:10264000D4011F910F910C94DF0E1092CD011092C6
:10265000CE011092CF011092D0010C94DF0E41E018
:1026600050E060E070E004C0440F551F661F771F04
:102670008A95D2F74093CD015093CE016093CF015C
:102680007093D0010C94DF0E41E050E060E070E008
:1026900004C0440F551F661F771F8A95D2F780919B
:1026A000CD019091CE01A091CF01B091D001842BAA
:1026B000952BA62BB72B8093CD019093CE01A093A1
:1026C000CF01B093D0010C94DF0E41E050E060E008
:1026D00070E004C0440F551F661F771F8A95D2F71C
:1026E00040955095609570958091CD019091CE0167
:1026F000A091CF01B091D00184239523A623B723C5
:102700008093CD019093CE01A093CF01B093D001DF
:102710000C94DF0E41E050E060E070E004C0440F34
:10272000551F661F771F8A95D2F78091CD01909132
:10273000CE01A091CF01B091D00184279527A62783
:10274000B7278093CD019093CE01A093CF01B09392
:10275000D0010C94DF0E0F931F930091CD011091C7
:10276000CE012091CF013091D001DC01CB01802B33
:10277000912BA22BB32B8093CD019093CE01A093EC
:10278000CF01B093D0011F910F910C94DF0E0F93E6
:102790001F930091CD011091CE012091CF01309176
:1027A000D001DC01CB0180239123A223B3238093AA
:1027B000CD019093CE01A093CF01B093D0011F9192
:1027C0000F910C94DF0E0F931F930091CD01109188
:1027D000CE012091CF013091D001DC01CB018027C7
:1027E0009127A227B3278093CD019093CE01A09388
:1027F000CF01B093D0011F910F910C94DF0E08957B
:10280000990F990F990F890F982F977071E001C058
:10281000770F9A95EAF786958695869525E0829FAB
:10282000C001112450E040E0A62FB0E0FC01E40F0D
:10283000F51FEB55FE4F60819D01042E02C03695B9
:1028400027950A94E2F7217021952627272326272A
:1028500020834F5F5F4F4530510541F70895990F31
:10286000990F990F890F982F977086958695869561
:1028700025E0829FA001112470E060E080E0FA0171
:10288000E60FF71FEB55FE4F208130E0092E02C006
:10289000369527950A94E2F721703327062E01C05A
:1028A000220F0A94EAF7822B6F5F7F4F6530710524
:1028B00031F70895BF92CF92DF92EF92FF920F937C
:1028C0001F93CF93DF938C01C090CD01D090CE01A8
:1028D000E090CF01F090D0018091D1019091D20190
:1028E000A091D301B091D401C82AD92AEA2AFB2A9F
:1028F000CFE1D0E0BC2ED701C6010C2E04C0B695A6
:10290000A795979587950A94D2F780FD0EC02197D9
:1029100088F7B12C8B2DDF91CF911F910F91FF90F4
:10292000EF90DF90CF90BF900895B8018C2F0E9458
:10293000F206019761F3EECFCF93DF93EC010E9493
:102940005A14BE01DF91CF910C94F2061F93CF93DE
:10295000DF93EB0190916C01992331F0CB01DF9172
:10296000CF911F910C949C14882379F0CB010E9485
:102970005A14182F682FCE010E940014BE01812F17
:10298000DF91CF911F910C94F206CB010E942F147E
:10299000182FF4CF8091D50185958595859508955B
:1029A0008091D5018770089598E0899F9001112446
:1029B000622B6093D5010C9444139091D5018095BE
:1029C00089238093D501282F277061F4282F082EA2
:1029D000000C330B9217130629F085958595859584
:1029E0000C94651308959091D501977081E009F4D6
:1029F00080E00895909112019923E1F090912B02CB
:102A000097FF18C0E82FE695E695E695EF3139F186
:102A10002091000130910101E20FF32FF11D877029
:102A200021E030E001C0220F8A95EAF78181822BF4
:102A3000818308952091000130910101F9013296BE
:102A40009FEF40E05191851751F09F3F19F45111CC
:102A500001C0942F4F5F4E31A9F79F3F09F40895AD
:102A6000290F311D97FD3A95F901828308959091C0
:102A700012019923F1F090912B0297FF1AC0E82FD1
:102A8000E695E695E695EF3129F120910001309128
:102A90000101E20FF32FF11D282F277081E090E054
:102AA00001C0880F2A95EAF7809591818923818357
:102AB00008952091000130910101F9013296205EC4
:102AC0003F4F9191891303C0DF0111971C92E217C8
:102AD000F307B9F7089581E090E0E0910001F091EB
:102AE0000101E80FF91F1082019680329105A9F7C4
:102AF00008959091F901892B8093F9010895982FF9
:102B000090958091F90189238093F901089510929D
:102B1000F90108959091F801892B8093F8010895A7
:102B2000982F90958091F80189238093F80108955A
:102B30001092F80108959091F701892B8093F70185
:102B40000895982F90958091F70189238093F7013C
:102B500008951092F70108958093D6010895109278
:102B6000D60108952091000130910101F9013196BB
:102B7000205E3F4F80E0919191118F5FE217F30744
:102B8000D1F70895E0910001F09101018091F901E0
:102B90008083E0910001F091010180819091F80122
:102BA000892B8083E0910001F09101018081909157
:102BB000F701892B80839091D601992361F0E091F0
:102BC0000001F09101018081892B80830E94B21560
:102BD00081111092D60180910001909101010C9415
:102BE000380A6DEE7EEF90E080E00E94042360E002
:102BF00082E090E00E94F22260E083E090E00E9498
:102C0000F22260E084E090E00E94F22260E085E041
:102C100090E00C94F22290E080E00E94EC2221E00F
:102C20008D3E9E4F09F020E0822F089582E090E0D3
:102C30000C94E422682F82E090E00C94F22283E06E
:102C400090E00C94E422682F83E090E00C94F22250
:102C500084E090E00C94E422682F84E090E00C94EF
:102C6000F22280913102843039F11092FB0188E127
:102C700090E020E40FB6F894A895809360000FBE12
:102C80002093600080E00E94D20683B7817F846039
:102C900083BF83B7816083BF7894889583B78E7F25
:102CA00083BF0FB6F894A8958091600088618093E7
:102CB0006000109260000FBE089508950895CF93AC
:102CC0000E945D160E9482090E945E16C0E08C2F51
:102CD0000E94200A811105C0CF5FC830C1F7CF9193
:102CE000089581E0FCCF0E94F30E0E942C0A0C9400
:102CF000D2061F920F920FB60F9211248F939F93BB
:102D0000AF93BF938091FB01811113C08091270283
:102D100090912802A0912902B0912A024196A11D0A
:102D2000B11D8093270290932802A0932902B093AB
:102D30002A02BF91AF919F918F910F900FBE0F907C
:102D40001F90189582E084BD93E095BD9AEF97BDE2
:102D500080936E0008952FB7F89480912702909188
:102D60002802A0912902B0912A022FBF0895CF9284
:102D7000DF92EF92FF920F931F932FB7F894409139
:102D80002702509128026091290270912A022FBFD8
:102D90006A017B01EE24FF248C0130E020E0C016A4
:102DA000D106E206F30650F0481B590BCA011F91E9
:102DB0000F91FF90EF90DF90CF900895415051090F
:102DC000F3CF1F920F920FB60F9211248F939F9300
:102DD000AF93BF938091270290912802A09129027E
:102DE000B0912A020196A11DB11D809327029093F4
:102DF0002802A0932902B0932A02BF91AF919F911C
:102E00008F910F900FBE0F901F9018950E948A1EF1
:102E1000F8942FEF87EA91E6215080409040E1F747
:102E200000C0000087E090EBDC0180933A029093B1
:102E30003B02A0933C02B0933D0288E19CE00FB6B8
:102E4000F894A895809360000FBE90936000FFCF28
:102E5000CF92DF92EF92FF920F931F93CF93C0E038
:102E6000E82EF12C8C2F0E94200A10E000E0C82EE2
:102E7000D12CC601002E02C0959587950A94E2F7E1
:102E800080FD11C00F5F1F4F0830110591F7CF5F14
:102E9000C83041F780E0CF911F910F91FF90EF90E4
:102EA000DF90CF900895602F7C2F80E00E94D506A0
:102EB000E816F90639F781E0EECFCF93C82F8CE200
:102EC0000E942817882321F08C2FCF910C9428176B
:102ED00080E0CF910895CF930E940B16811102C01C
:102EE0000E94F115C5E608C00E9482098FE39CE9A3
:102EF0000197F1F700C00000C150B1F789E20E94CC
:102F00005D178111EFC08AE20E945D1781110E9456
:102F1000F11585E00E945D1781110E9406170E943D
:102F200016168093FA0187E00E945D17882371F0DE
:102F30008BE10E945D17882309F4B1C09091FA01DA
:102F4000892F8D7F91FF82608093FA018091FA0131
:102F50000E941A160E94281690E090932C028093EB
:102F60002B0280EE0E945D17882341F090912B0286
:102F7000892F8E7F90FF816080932B0289E30E94CE
:102F80005D17882341F090912B02892F8D7F91FF4F
:102F9000826080932B0282EE0E945D17882341F0AD
:102FA00090912B02892F8B7F92FF846080932B025C
:102FB00086EE0E945D17882341F090912B02892FA5
:102FC000877F93FF886080932B0283EE0E945D17BA
:102FD000882341F090912B02892F8F7E94FF80618E
:102FE00080932B0285E30E945D17882341F0909126
:102FF0002B02892F8F7D95FF806280932B0281E3C6
:103000000E945D17882341F090912B02892F8F7BBE
:1030100096FF806480932B0281E10E945D178823D4
:1030200041F090912B02892F97FB87F9805880936C
:103030002B0280912B020E942C1687E20E945D17C2
:10304000C82F8EE10E945D178111C2608FE10E943E
:103050005D178111C46080E20E945D178111C86014
:1030600081E20E945D178111C06182E20E945D17BA
:103070008111C06283E20E945D178111C06484E205
:103080000E945D17882341F1C0688C2F0E9423168F
:103090006C2F70E090E080E0CF910C94C7128EE02E
:1030A0000E945D17882339F09091FA01892F8B7F58
:1030B00092FF846049CF80E10E945D179091FA01F0
:1030C000882329F0892F877F93FF88603DCF892F40
:1030D0008E7F90FF816038CFC111D7CF0E941F161D
:1030E000682FD7CFCF9108958091FE0180FF12C045
:1030F0006091050185E0689FB00111247595679581
:103100007595679560387105A8F561157105A1F190
:10311000862F089581FF09C06091050185E0689FB1
:10312000B001112475956795EDCF82FF07C06091BE
:10313000050185E0689FB0011124E4CF2091FF01D3
:103140002223A9F0909104016091050185E0689F18
:10315000B00111242917B0F6269FA001279F500D1A
:103160001124692F70E0CA010E94B622CBCF65E01E
:1031700070E0CECF8FE7089581E008958091FE0141
:1031800080FF0CC06091030170E07595679575959F
:1031900067956115710549F1862F089581FF06C075
:1031A0006091030170E075956795F3CF609103011D
:1031B00082FD0BC09091FF019923A1F06091020163
:1031C00080910301961738F0682F70E06038710520
:1031D00000F38FE70895899FC001112470E00E94D9
:1031E000B622F4CF61E070E0D7CF81E00895803F50
:1031F00031F40E9474188195809302020895813FF2
:1032000019F40E947418F8CF823F31F40E947418A8
:103210008195809301020895833F19F40E947418E8
:10322000F8CF893F29F40E94BE18809303020895C5
:103230008A3F21F40E94BE188195F7CF8B3F31F46D
:103240000E94BE1881958093040208958C3F19F462
:103250000E94BE18F8CF843F31F480910002816053
:10326000809300020895853F21F4809100028260DE
:10327000F7CF863F21F4809100028460F1CF873F31
:1032800021F4809100028860EBCF883F21F4809187
:1032900000028061E5CF8D3F31F48091FE018160B5
:1032A0008093FE0108958E3F21F48091FE0182609B
:1032B000F7CF8F3FB9F78091FE018460F1CF803F57
:1032C000C1F48091020287FD1092020280910102F6
:1032D00081110EC08091020281110AC08091030207
:1032E000811106C080910402811102C01092FF0179
:1032F0000895813F29F48091020218162CF3E6CF3D
:1033000090910102823F29F497FFE0CF10920102D1
:10331000DDCF833F19F41916CCF3D8CF893F39F4A8
:1033200080910302181694F610920302CFCF8A3FC1
:1033300029F48091030287FFC9CFF6CF8B3F39F480
:103340008091040287FFC2CF10920402BFCF8C3F4E
:1033500029F4809104021816BCF3B8CF843F31F4ED
:10336000809100028E7F80930002B0CF853F21F4D0
:10337000809100028D7FF7CF863F21F4809100027B
:103380008B7FF1CF873F21F480910002877FEBCFC5
:10339000883F21F4809100028F7EE5CF8D3F31F48C
:1033A0008091FE018E7F8093FE0190CF8E3F21F4AD
:1033B0008091FE018D7FF7CF8F3F09F087CF8091FD
:1033C000FE018B7FF0CF80E092E00E94430A0E94D2
:1033D000AB169093FD018093FC0108951F93CF934A
:1033E000DF938091FC019091FD010E94B716AC0122
:1033F0009091FF012091060130E0911106C02091CB
:1034000007018AE0289F900111244217530780F09A
:1034100080910102C091020210910302D091040236
:1034200081110AC0C11178C0111176C0D11174C0C8
:10343000DF91CF911F9108959F3F19F09F5F909367
:10344000FF01181624F40E947418809301028091E1
:10345000010287FF05C00E947418819580930102C4
:103460001C1624F40E9474188093020280910202B8
:1034700087FF05C00E9474188195809302026091B5
:103480000102662331F1C0910202CC2311F1062E14
:10349000000C770B880B990B0E94BD2123E333E3CB
:1034A00043E35FE30E9421220E9485216093010291
:1034B0006C2FCC0F770B880B990B0E94BD2123E357
:1034C00033E343E35FE30E9421220E94852160935E
:1034D0000202111624F40E94BE1880930302809108
:1034E000030287FF05C00E94BE18819580930302E6
:1034F0001D1624F40E94BE188093040280910402D9
:1035000087FF05C00E94BE18819580930402DF9159
:10351000CF911F910C94E3199F3F09F08FCFA0CF5B
:1035200085E0E0E0F2E0DF011D928A95E9F7109274
:10353000FF011092FE010895809125020895CF9316
:10354000DF9300D01F92CDB7DEB79C01809131028E
:10355000843019F593E099833B832A839093E900A3
:103560008FEF9091E800815095FD06C095ED9A95FA
:10357000F1F700008111F5CF8091E80085FF0DC0C3
:1035800050E040E063E070E0CE0101960E94FA1C3A
:103590008091E8008E778093E8000F900F900F9055
:1035A000DF91CF910895CF93DF9300D01F92CDB7D5
:1035B000DEB720913102243031F522E02983805892
:1035C00091099B838A8383E08093E9008FEF909138
:1035D000E800815095FD06C095ED9A95F1F7000041
:1035E0008111F5CF8091E80085FF0DC050E040E0EB
:1035F00063E070E0CE0101960E94FA1C8091E80021
:103600008E778093E8000F900F900F90DF91CF910D
:1036100008959C01809131028430F9F482E0809316
:10362000E9009FEF8091E800915085FD06C085ED8F
:103630008A95F1F700009111F5CF8091E80085FFA0
:103640000CC050E040E065E070E0C9010E94FA1C47
:103650008091E8008E778093E8000895CF93DF9300
:10366000EC01809131028430F1F4909112019923A0
:10367000E9F090912B0297FF19C08093E9008FEF3A
:103680009091E800815095FD06C095E19A95F1F77B
:1036900000008111F5CF8091E80050E040E060E249
:1036A00070E085FD1AC0DF91CF91089581E080938D
:1036B000E9008FEF9091E800815095FD06C095EDEF
:1036C0009A95F1F700008111F5CF8091E80085FF10
:1036D000EACF50E040E068E070E0CE010E94FA1CC2
:1036E0008091E8008E778093E80080E2FE01A5E0FB
:1036F000B2E001900D928A95E1F7D5CF809130022A
:10370000811109C00E948A1E0E94E71E8091E2007A
:1037100084608093E2000895109230020895089525
:1037200008950C94731642E061EC81E00E94081E3B
:1037300042E061EC82E00E94081E42E061EC83E01E
:103740000E94081E42E261EC84E00C94081E809105
:103750003302833009F455C030F4813071F1823086
:1037600009F491C008958A3009F47DC08B3009F4C2
:1037700063C0893009F044C080913202813209F07F
:103780003FC08091360290913702009711F0039765
:10379000B9F58091E800877F8093E8008091E80088
:1037A00082FF2AC08091F100809325028091E80079
:1037B0008B778093E8000C943C1E80913202813A12
:1037C000F9F48091E800877F8093E80080913602C9
:1037D00090913702892B61F460E285E092E070E01D
:1037E0000E94491D8091E8008B778093E80008953E
:1037F00060E090E080E0F3CF809131028111CECF84
:10380000089580913202813AD9F7809136029091E1
:103810003702892BA9F78091E800877F8093E80021
:103820008091E80080FFFCCF809112018093F1002D
:103830008091E8008E77BDCF80913202813201F70E
:103840008091360290913702892BD1F68091E80061
:10385000877F8093E8000E943C1E80913402809311
:1038600012010C94F30E80913202813249F680915C
:10387000E800877F8093E8000E943C1E809135021B
:1038800080932602089580913202813A09F0B8CFE0
:103890008091E800877F8093E8008091E80080FFB6
:1038A000FCCF80912602C2CF84B7877F84BF0FB63A
:1038B000F894A895809160008861809360001092D0
:1038C00060000FBE80E880936100109261000E944A
:1038D0007B0A0E948A1E0E94E71E8091E20084609B
:1038E0008093E20078940E9469210E947D0A88E01A
:1038F00091E00E94270A80913102853019F00E94E0
:10390000830AF9CF0E94311680912F02882399F300
:103910000E945F16882379F30E94E41CECCF292FC4
:1039200033272330310579F158F421303105F1F096
:103930002230310519F190E080E030E020E01AC03B
:103940002132310599F122323105A9F7643098F717
:1039500070E0FB01EE0FFF1FE95DFE4F208131811A
:103960006D5D7E4FFB01808190E004C082E190E0BC
:1039700029E439E0FA013183208308958DE690E04F
:103980002CED38E0F7CF99278130910561F028F0D0
:10399000029789F6ECEAF8E002C0E8EDF8E08491DD
:1039A00090E09F01E7CFE0ECF8E0F9CF643008F059
:1039B000C2CFE62FF0E0EE0FFF1FE15DFE4F20814A
:1039C000318189E090E0D6CF80E189BD82E189BD77
:1039D00009B400FEFDCF8091D8008F7D8093D80080
:1039E0008091E00082608093E0008091E00081FDA2
:1039F000FCCF0895AF92BF92CF92DF92FF920F93C8
:103A00001F93CF93DF936C01EB018A010E945B1E31
:103A1000F82E811123C00115110539F0F8018081BC
:103A20009181C81BD90BC80ED91EB12CA12C20978F
:103A3000A9F08091E80085FD22C08091E8008E7792
:103A40008093E80001151105A1F0F80180819181B2
:103A5000A80EB91EB182A08285E0F82E8F2DDF91CD
:103A6000CF911F910F91FF90DF90CF90BF90AF90BB
:103A700008950E945B1E8823D1F2F82EEFCFF60145
:103A800081916F018093F1002197FFEFAF1ABF0A78
:103A9000CECFFC01809138029091390286179707AA
:103AA000A0F06115710529F49091E8009E7790933C
:103AB000E80090E06115710551F4911108C0809102
:103AC000E80082FF35C080E00895BC01F2CF80910C
:103AD00031028823C9F18530C9F18091E80083FD66
:103AE00031C08091E80082FDEACF8091E80080FF3C
:103AF000E1CF2091F3008091F200322F282F611541
:103B0000710519F02830310558F091E02830310561
:103B100009F090E02091E8002E772093E800CACFCA
:103B200081918093F100615071092F5F3F4FE7CF82
:103B300080913102882341F0853041F08091E80086
:103B400083FFBDCF81E0089582E0089583E008956A
:103B5000FC01809138029091390286179707A0F0F6
:103B60006115710529F48091E8008E778093E80053
:103B700090E06115710551F4911108C08091E80041
:103B800082FF36C080E00895BC01F2CF80913102FF
:103B90008823D1F18530D1F18091E80083FD32C0D6
:103BA0008091E80082FDEACF8091E80080FFE1CFBC
:103BB0002091F3008091F200322F282F61157105BA
:103BC00019F02830310558F091E02830310509F01E
:103BD00090E08091E8008E778093E800CACF8491CE
:103BE0008093F1003196615071092F5F3F4FE6CF0E
:103BF00080913102882341F0853041F08091E800C6
:103C000083FFBCCF81E0089582E0089583E00895AA
:103C1000982F973028F08F708093E90081E0089505
:103C20009093E900242F762F50E0981731F070918F
:103C3000EC002091ED005091F00021FD02C09F5F4B
:103C4000E8CF3091EB003E7F3093EB003091ED00F8
:103C50003D7F3093ED003091EB0031603093EB000D
:103C60007093EC002093ED005093F0002091EE0053
:103C700027FDE5CF80E008958091320287FF13C0D1
:103C80008091E80082FF06C08091E8008B778093E6
:103C9000E80004C0809131028111F2CF0895809133
:103CA00031028823D9F38091E80080FFF8CF80911A
:103CB000E8008E77ECCF2091E4003091E50085E6B6
:103CC0009091EC0090FF06C09091E80090FF06C034
:103CD00080E008959091E80092FDFACF9091310232
:103CE000992391F0953091F09091EB0095FD10C0E3
:103CF0004091E4005091E5002417350709F3815005
:103D00009A01F1F684E0089582E0089583E0089531
:103D100081E008950E94F81E0E94001FE0EEF0E08E
:103D2000808181608083E8EDF0E080818F778083FF
:103D300019BCA7EDB0E08C918E7F8C9380818F7E33
:103D400080831092300208950F931F93CF93DF93D7
:103D50000E94F81E0E94001FC8EDD0E088818F7776
:103D6000888388818068888388818F7D888319BC57
:103D70001092310210922D0210922F0210922E02F8
:103D800000EE10E0F80180818B7F80838881816064
:103D9000888342E060E080E00E94081EE1EEF0E0EF
:103DA00080818E7F8083E2EEF0E08081816080837D
:103DB000808188608083F80180818E7F8083888104
:103DC00080618883DF91CF911F910F910895E8ED75
:103DD000F0E080818F7E8083E7EDF0E0808181607C
:103DE000808384E082BF81E0809330020C94A41E23
:103DF000E8EDF0E080818E7F80831092E2000895EC
:103E00001092DA001092E10008951F920F920FB6FF
:103E10000F9211242F933F934F935F936F937F9350
:103E20008F939F93AF93BF93EF93FF938091E100A4
:103E300082FF0BC08091E20082FF07C08091E10009
:103E40008B7F8093E1000E9468218091DA0080FFDF
:103E500019C08091D80080FF15C08091DA008E7F54
:103E60008093DA008091D90080FF94C080E189BD01
:103E700082E189BD09B400FEFDCF81E0809331026B
:103E80000E947E1B8091E10080FF19C08091E200BA
:103E900080FF15C08091E2008E7F8093E2008091C8
:103EA000E20080618093E2008091D800806280937C
:103EB000D80019BC85E0809331020E94901B80914C
:103EC000E10084FF29C08091E20084FF25C080E1E9
:103ED00089BD82E189BD09B400FEFDCF8091D80083
:103EE0008F7D8093D8008091E1008F7E8093E100E8
:103EF0008091E2008F7E8093E2008091E2008160F9
:103F00008093E20080912D02882309F449C084E067
:103F1000809331020E94911B8091E10083FF29C0B0
:103F20008091E20083FF25C08091E100877F80932C
:103F3000E10082E08093310210922D028091E10035
:103F40008E7F8093E1008091E2008E7F8093E2007B
:103F50008091E20080618093E20042E060E080E0D6
:103F60000E94081E8091F00088608093F0000E94FB
:103F70008F1BFF91EF91BF91AF919F918F917F9197
:103F80006F915F914F913F912F910F900FBE0F90C6
:103F90001F90189519BC109231020E948C1B72CF91
:103FA0008091E30087FD02C081E0B2CF83E0B0CF13
:103FB0001F920F920FB60F9211242F933F934F939E
:103FC0005F936F937F938F939F93AF93BF93CF93A1
:103FD000EF93FF93C091E900CF708091EC001092B5
:103FE000E9008091F000877F8093F00078940E9430
:103FF00014201092E9008091F00088608093F00016
:10400000C093E900FF91EF91CF91BF91AF919F9144
:104010008F917F916F915F914F913F912F910F9071
:104020000FBE0F901F9018951F93CF93DF93CDB7BE
:10403000DEB7AA970FB6F894DEBF0FBECDBFE2E39E
:10404000F2E08091F100819322E0EA33F207C9F7B0
:104050000E94A71B8091E80083FF42C0809132023A
:10406000909133029A3008F03BC0E92FF0E0E55C14
:10407000FF4D0C94CA2245206920702069207020D1
:10408000C420E62070203B214821803879F0823816
:1040900039F5809136028F708093E9008091EB00B2
:1040A00085FB882780F91092E90006C080912E02D6
:1040B00090912F02911182609091E800977F9093E8
:1040C000E8008093F1001092F1008091E8008E7773
:1040D0002DC0282F2D7F21F48823D1F0823059F173
:1040E0008091E80083FF0AC08091E800877F809379
:1040F000E8008091EB0080628093EB00AA960FB6F7
:10410000F894DEBF0FBECDBFDF91CF911F91089510
:1041100080913402813021F7933009F080E0809360
:104120002F021092E9008091E800877F8093E800D9
:104130000E943C1ED5CF809134028111F2CF809134
:1041400036028F7069F28093E9002091EB0020FF26
:10415000E8CF933031F48091EB0080628093EB00E4
:10416000E0CF9091EB0090619093EB0021E030E084
:1041700001C0220F8A95EAF72093EA001092EA0024
:104180008091EB008860EACF8111AACF10913402B0
:104190001F778091E3008078812B8093E3008091EA
:1041A000E800877F8093E8000E943C1E8091E80031
:1041B00080FFFCCF8091E30080688093E30083E080
:1041C000111101C082E0809331028ACF8058823081
:1041D00008F086CF80913402909135028C3D23E027
:1041E0009207A1F583E08A838AE289834FB7F89426
:1041F000DE01139620E03EE051E2E32FF0E0509321
:104200005700E49120FF03C0E295EF703F5FEF702D
:104210008E2F90E0EA30C0F0C7968D939D932F5F6C
:10422000243159F74FBF8091E800877F8093E800E1
:104230006AE270E0CE0101960E94491D8091E8007B
:104240008B778093E8004CCFC096E7CFAE014F5FED
:104250005F4F609136020E948F1CBC01892B09F4CC
:104260003FCF9091E800977F9093E80089819A81F1
:104270000E94A81DE3CF803809F032CF8091E8007A
:10428000877F8093E80080912D028093F1001DCFFD
:10429000811126CF90913402923008F021CF809185
:1042A000E800877F8093E80090932D020E943C1ED7
:1042B00080912D02882331F084E0809331020E94A6
:1042C000931B0ECF8091E30087FDF6CF81E0F5CF01
:1042D0000895CF9380913102882399F0C091E9002D
:1042E000CF708091EC0080FD0EC080E0C82B109252
:1042F000E9008091E80083FD0E941420CF70C093F4
:10430000E900CF91089580E8F1CF0E948C21689454
:10431000B1110C941B2208950E94002288F09F572F
:1043200098F0B92F9927B751B0F0E1F0660F771FD9
:10433000881F991F1AF0BA95C9F714C0B13091F0CF
:104340000E941A22B1E008950C941A22672F782F48
:104350008827B85F39F0B93FCCF386957795679594
:10436000B395D9F73EF490958095709561957F4F00
:104370008F4F9F4F0895E89409C097FB3EF49095A6
:104380008095709561957F4F8F4F9F4F9923A9F02E
:10439000F92F96E9BB279395F695879577956795BD
:1043A000B795F111F8CFFAF4BB0F11F460FF1BC001
:1043B0006F5F7F4F8F4F9F4F16C0882311F096E994
:1043C00011C0772321F09EE8872F762F05C0662342
:1043D00071F096E8862F70E060E02AF09A95660FFB
:1043E000771F881FDAF7880F9695879597F90895B4
:1043F00057FD9058440F551F59F05F3F71F0479596
:10440000880F97FB991F61F09F3F79F0879508957A
:10441000121613061406551FF2CF4695F1DF08C099
:10442000161617061806991FF1CF869571056105B6
:1044300008940895E894BB2766277727CB0197F95E
:1044400008950E9434220C94A5220E94972238F0ED
:104450000E949E2220F0952311F00C948E220C9441
:10446000942211240C941B220E94F82170F3959F32
:10447000C1F3950F50E0551F629FF001729FBB275B
:10448000F00DB11D639FAA27F00DB11DAA1F649FF7
:104490006627B00DA11D661F829F2227B00DA11DAA
:1044A000621F739FB00DA11D621F839FA00D611D30
:1044B000221F749F3327A00D611D231F849F600D51
:1044C000211D822F762F6A2F11249F5750409AF07A
:1044D000F1F088234AF0EE0FFF1FBB1F661F771F06
:1044E000881F91505040A9F79E3F510580F00C94D1
:1044F0008E220C941B225F3FE4F3983ED4F3869502
:1045000077956795B795F795E7959F5FC1F7FE2B70
:10451000880F911D9695879597F9089597F99F674C
:1045200080E870E060E008959FEF80EC089500243B
:104530000A941616170618060906089500240A9408
:1045400012161306140605060895092E0394000C8E
:1045500011F4882352F0BB0F40F4BF2B11F460FF1D
:1045600004C06F5F7F4F8F4F9F4F089597FB072EBB
:1045700016F4009407D077FD09D00E94D02207FCE2
:1045800005D03EF4909581959F4F08957095619563
:104590007F4F0895EE0FFF1F0590F491E02D0994D1
:1045A000AA1BBB1B51E107C0AA1FBB1FA617B70759
:1045B00010F0A61BB70B881F991F5A95A9F7809575
:1045C0009095BC01CD010895F999FECF92BD81BDB2
:1045D000F89A992780B50895A8E1B0E042E050E04C
:1045E0000C940C23262FF999FECF92BD81BDF89A29
:1045F000019700B4021639F01FBA20BD0FB6F89427
:10460000FA9AF99A0FBE08950196272F0E94F32275
:104610000C94F222DC01CB01FC01F999FECF06C01B
:10462000F2BDE1BDF89A319600B40D924150504070
:08463000B8F70895F894FFCFDC
:10463800D7012808140A321E9C1A2E1B091BD31AEC
:104648009F1A013534C69766949091F4F5F6F731C0
:10465800333236404D3639170ACA0994095B09EED8
:084668000807092009390900C7
:00000001FF
